{
  "address": "0xe7f1725E7734CE288F8367e1Bb143E90bb3F0512",
  "abi": [
    {
      "inputs": [
        {
          "internalType": "address",
          "name": "priceFeedAddress",
          "type": "address"
        }
      ],
      "stateMutability": "nonpayable",
      "type": "constructor"
    },
    {
      "inputs": [],
      "name": "FundMe__NotOwner",
      "type": "error"
    },
    {
      "inputs": [],
      "name": "MINIMUM_USD",
      "outputs": [
        {
          "internalType": "uint256",
          "name": "",
          "type": "uint256"
        }
      ],
      "stateMutability": "view",
      "type": "function"
    },
    {
      "inputs": [
        {
          "internalType": "address",
          "name": "",
          "type": "address"
        }
      ],
      "name": "addressToAmountFunded",
      "outputs": [
        {
          "internalType": "uint256",
          "name": "",
          "type": "uint256"
        }
      ],
      "stateMutability": "view",
      "type": "function"
    },
    {
      "inputs": [],
      "name": "fund",
      "outputs": [],
      "stateMutability": "payable",
      "type": "function"
    },
    {
      "inputs": [
        {
          "internalType": "uint256",
          "name": "",
          "type": "uint256"
        }
      ],
      "name": "funders",
      "outputs": [
        {
          "internalType": "address",
          "name": "",
          "type": "address"
        }
      ],
      "stateMutability": "view",
      "type": "function"
    },
    {
      "inputs": [],
      "name": "getVersion",
      "outputs": [
        {
          "internalType": "uint256",
          "name": "",
          "type": "uint256"
        }
      ],
      "stateMutability": "view",
      "type": "function"
    },
    {
      "inputs": [],
      "name": "i_owner",
      "outputs": [
        {
          "internalType": "address",
          "name": "",
          "type": "address"
        }
      ],
      "stateMutability": "view",
      "type": "function"
    },
    {
      "inputs": [],
      "name": "priceFeed",
      "outputs": [
        {
          "internalType": "contract AggregatorV3Interface",
          "name": "",
          "type": "address"
        }
      ],
      "stateMutability": "view",
      "type": "function"
    },
    {
      "inputs": [],
      "name": "withdraw",
      "outputs": [],
      "stateMutability": "payable",
      "type": "function"
    }
  ],
  "transactionHash": "0x4af6283ed2a09f811d4c8167b347dd5b8ea77b2217296b711c6e8c72a230f6ce",
  "args": [
    "0x5FbDB2315678afecb367f032d93F642f64180aa3"
  ],
  "numDeployments": 1,
  "solcInputHash": "c75c2bdc11181895763af605bf5bc7d1",
  "bytecode": "0x60806040523480156200001157600080fd5b50604051620010d4380380620010d483398181016040528101906200003791906200012a565b80600360006101000a81548173ffffffffffffffffffffffffffffffffffffffff021916908373ffffffffffffffffffffffffffffffffffffffff16021790555033600260006101000a81548173ffffffffffffffffffffffffffffffffffffffff021916908373ffffffffffffffffffffffffffffffffffffffff160217905550506200015c565b600080fd5b600073ffffffffffffffffffffffffffffffffffffffff82169050919050565b6000620000f282620000c5565b9050919050565b6200010481620000e5565b81146200011057600080fd5b50565b6000815190506200012481620000f9565b92915050565b600060208284031215620001435762000142620000c0565b5b6000620001538482850162000113565b91505092915050565b610f68806200016c6000396000f3fe60806040526004361061007b5760003560e01c8063741bef1a1161004e578063741bef1a1461011d578063b60d428814610148578063dba6335f14610152578063dc0d3dff1461017d5761007b565b80630d8e6e2c146100805780633ccfd60b146100ab5780633e47d6f3146100b55780636b69a592146100f2575b600080fd5b34801561008c57600080fd5b506100956101ba565b6040516100a29190610829565b60405180910390f35b6100b3610261565b005b3480156100c157600080fd5b506100dc60048036038101906100d791906108a7565b6104a3565b6040516100e99190610829565b60405180910390f35b3480156100fe57600080fd5b506101076104bb565b6040516101149190610829565b60405180910390f35b34801561012957600080fd5b506101326104c8565b60405161013f9190610933565b60405180910390f35b6101506104ee565b005b34801561015e57600080fd5b50610167610628565b604051610174919061095d565b60405180910390f35b34801561018957600080fd5b506101a4600480360381019061019f91906109a4565b61064e565b6040516101b1919061095d565b60405180910390f35b6000600360009054906101000a900473ffffffffffffffffffffffffffffffffffffffff1673ffffffffffffffffffffffffffffffffffffffff166354fd4d506040518163ffffffff1660e01b815260040160206040518083038186803b15801561022457600080fd5b505afa158015610238573d6000803e3d6000fd5b505050506040513d601f19601f8201168201806040525081019061025c91906109e6565b905090565b600260009054906101000a900473ffffffffffffffffffffffffffffffffffffffff1673ffffffffffffffffffffffffffffffffffffffff163373ffffffffffffffffffffffffffffffffffffffff16146102e8576040517f579610db00000000000000000000000000000000000000000000000000000000815260040160405180910390fd5b60005b6001805490508110156103935760006001828154811061030e5761030d610a13565b5b9060005260206000200160009054906101000a900473ffffffffffffffffffffffffffffffffffffffff16905060008060008373ffffffffffffffffffffffffffffffffffffffff1673ffffffffffffffffffffffffffffffffffffffff1681526020019081526020016000208190555050808061038b90610a71565b9150506102eb565b50600067ffffffffffffffff8111156103af576103ae610aba565b5b6040519080825280602002602001820160405280156103dd5781602001602082028036833780820191505090505b50600190805190602001906103f3929190610769565b5060003373ffffffffffffffffffffffffffffffffffffffff164760405161041a90610b1a565b60006040518083038185875af1925050503d8060008114610457576040519150601f19603f3d011682016040523d82523d6000602084013e61045c565b606091505b50509050806104a0576040517f08c379a000000000000000000000000000000000000000000000000000000000815260040161049790610b8c565b60405180910390fd5b50565b60006020528060005260406000206000915090505481565b6802b5e3af16b188000081565b600360009054906101000a900473ffffffffffffffffffffffffffffffffffffffff1681565b6802b5e3af16b188000061052d600360009054906101000a900473ffffffffffffffffffffffffffffffffffffffff163461068d90919063ffffffff16565b101561056e576040517f08c379a000000000000000000000000000000000000000000000000000000000815260040161056590610bf8565b60405180910390fd5b346000803373ffffffffffffffffffffffffffffffffffffffff1673ffffffffffffffffffffffffffffffffffffffff16815260200190815260200160002060008282546105bc9190610c18565b925050819055506001339080600181540180825580915050600190039060005260206000200160009091909190916101000a81548173ffffffffffffffffffffffffffffffffffffffff021916908373ffffffffffffffffffffffffffffffffffffffff160217905550565b600260009054906101000a900473ffffffffffffffffffffffffffffffffffffffff1681565b6001818154811061065e57600080fd5b906000526020600020016000915054906101000a900473ffffffffffffffffffffffffffffffffffffffff1681565b600080610699836106c9565b90506000670de0b6b3a764000085836106b29190610c6e565b6106bc9190610cf7565b9050809250505092915050565b6000808273ffffffffffffffffffffffffffffffffffffffff1663feaf968c6040518163ffffffff1660e01b815260040160a06040518083038186803b15801561071257600080fd5b505afa158015610726573d6000803e3d6000fd5b505050506040513d601f19601f8201168201806040525081019061074a9190610da0565b5050509150506402540be400816107619190610e1b565b915050919050565b8280548282559060005260206000209081019282156107e2579160200282015b828111156107e15782518260006101000a81548173ffffffffffffffffffffffffffffffffffffffff021916908373ffffffffffffffffffffffffffffffffffffffff16021790555091602001919060010190610789565b5b5090506107ef91906107f3565b5090565b5b8082111561080c5760008160009055506001016107f4565b5090565b6000819050919050565b61082381610810565b82525050565b600060208201905061083e600083018461081a565b92915050565b600080fd5b600073ffffffffffffffffffffffffffffffffffffffff82169050919050565b600061087482610849565b9050919050565b61088481610869565b811461088f57600080fd5b50565b6000813590506108a18161087b565b92915050565b6000602082840312156108bd576108bc610844565b5b60006108cb84828501610892565b91505092915050565b6000819050919050565b60006108f96108f46108ef84610849565b6108d4565b610849565b9050919050565b600061090b826108de565b9050919050565b600061091d82610900565b9050919050565b61092d81610912565b82525050565b60006020820190506109486000830184610924565b92915050565b61095781610869565b82525050565b6000602082019050610972600083018461094e565b92915050565b61098181610810565b811461098c57600080fd5b50565b60008135905061099e81610978565b92915050565b6000602082840312156109ba576109b9610844565b5b60006109c88482850161098f565b91505092915050565b6000815190506109e081610978565b92915050565b6000602082840312156109fc576109fb610844565b5b6000610a0a848285016109d1565b91505092915050565b7f4e487b7100000000000000000000000000000000000000000000000000000000600052603260045260246000fd5b7f4e487b7100000000000000000000000000000000000000000000000000000000600052601160045260246000fd5b6000610a7c82610810565b91507fffffffffffffffffffffffffffffffffffffffffffffffffffffffffffffffff821415610aaf57610aae610a42565b5b600182019050919050565b7f4e487b7100000000000000000000000000000000000000000000000000000000600052604160045260246000fd5b600081905092915050565b50565b6000610b04600083610ae9565b9150610b0f82610af4565b600082019050919050565b6000610b2582610af7565b9150819050919050565b600082825260208201905092915050565b7f43616c6c206661696c6564000000000000000000000000000000000000000000600082015250565b6000610b76600b83610b2f565b9150610b8182610b40565b602082019050919050565b60006020820190508181036000830152610ba581610b69565b9050919050565b7f596f75206e65656420746f207370656e64206d6f726520455448210000000000600082015250565b6000610be2601b83610b2f565b9150610bed82610bac565b602082019050919050565b60006020820190508181036000830152610c1181610bd5565b9050919050565b6000610c2382610810565b9150610c2e83610810565b9250827fffffffffffffffffffffffffffffffffffffffffffffffffffffffffffffffff03821115610c6357610c62610a42565b5b828201905092915050565b6000610c7982610810565b9150610c8483610810565b9250817fffffffffffffffffffffffffffffffffffffffffffffffffffffffffffffffff0483118215151615610cbd57610cbc610a42565b5b828202905092915050565b7f4e487b7100000000000000000000000000000000000000000000000000000000600052601260045260246000fd5b6000610d0282610810565b9150610d0d83610810565b925082610d1d57610d1c610cc8565b5b828204905092915050565b600069ffffffffffffffffffff82169050919050565b610d4781610d28565b8114610d5257600080fd5b50565b600081519050610d6481610d3e565b92915050565b6000819050919050565b610d7d81610d6a565b8114610d8857600080fd5b50565b600081519050610d9a81610d74565b92915050565b600080600080600060a08688031215610dbc57610dbb610844565b5b6000610dca88828901610d55565b9550506020610ddb88828901610d8b565b9450506040610dec888289016109d1565b9350506060610dfd888289016109d1565b9250506080610e0e88828901610d55565b9150509295509295909350565b6000610e2682610d6a565b9150610e3183610d6a565b9250827f7fffffffffffffffffffffffffffffffffffffffffffffffffffffffffffffff0482116000841360008413161615610e7057610e6f610a42565b5b817f80000000000000000000000000000000000000000000000000000000000000000583126000841260008413161615610ead57610eac610a42565b5b827f80000000000000000000000000000000000000000000000000000000000000000582126000841360008412161615610eea57610ee9610a42565b5b827f7fffffffffffffffffffffffffffffffffffffffffffffffffffffffffffffff0582126000841260008412161615610f2757610f26610a42565b5b82820290509291505056fea26469706673582212201966bca308ed4f8c982235205c2323c0f1c8d3237a64e11f3248a8a84800515864736f6c63430008080033",
  "devdoc": {
    "kind": "dev",
    "methods": {},
    "version": 1
  },
  "userdoc": {
    "errors": {
      "FundMe__NotOwner()": [
        {
          "notice": "caller is not the owner"
        }
      ]
    },
    "kind": "user",
    "methods": {},
    "version": 1
  },
  "storageLayout": {
    "storage": [
      {
        "astId": 59,
        "contract": "contracts/FundMe.sol:FundMe",
        "label": "addressToAmountFunded",
        "offset": 0,
        "slot": "0",
        "type": "t_mapping(t_address,t_uint256)"
      },
      {
        "astId": 62,
        "contract": "contracts/FundMe.sol:FundMe",
        "label": "funders",
        "offset": 0,
        "slot": "1",
        "type": "t_array(t_address)dyn_storage"
      },
      {
        "astId": 64,
        "contract": "contracts/FundMe.sol:FundMe",
        "label": "i_owner",
        "offset": 0,
        "slot": "2",
        "type": "t_address"
      },
      {
        "astId": 74,
        "contract": "contracts/FundMe.sol:FundMe",
        "label": "priceFeed",
        "offset": 0,
        "slot": "3",
        "type": "t_contract(AggregatorV3Interface)45"
      }
    ],
    "types": {
      "t_address": {
        "encoding": "inplace",
        "label": "address",
        "numberOfBytes": "20"
      },
      "t_array(t_address)dyn_storage": {
        "base": "t_address",
        "encoding": "dynamic_array",
        "label": "address[]",
        "numberOfBytes": "32"
      },
      "t_contract(AggregatorV3Interface)45": {
        "encoding": "inplace",
        "label": "contract AggregatorV3Interface",
        "numberOfBytes": "20"
      },
      "t_mapping(t_address,t_uint256)": {
        "encoding": "mapping",
        "key": "t_address",
        "label": "mapping(address => uint256)",
        "numberOfBytes": "32",
        "value": "t_uint256"
      },
      "t_uint256": {
        "encoding": "inplace",
        "label": "uint256",
        "numberOfBytes": "32"
      }
    }
  }
}